:020000040000FA
:0600000031EF6FF0120069
:0600080004EF50F01200AD
:060018000CEF50F0120095
:06A0000031EF6FF01200C9
:02A00600120046
:06A0080045EF56F01200C6
:02A00E0012003E
:02A0100001004D
:02A01200000547
:06A0180048EF56F01200B3
:02A01E0006003A
:10A0200012A00000A600000002000000ABDE00004D
:10A03000A800000001000000A0DF0000E602000010
:10A0400016000000BADE000000020000E60000007A
:10A050004FD90000FF0100000100000010A0000027
:08A06000A40000000200000052
:08A0680070EC55F0FB0EDBCF9C
:10A07000F3FFDB06F35000090AE0BEEC55F0FA0EE0
:10A0800029EC56F0F3E1151CF1E1010E01D0000EB0
:10A090009FEF55F070EC55F03B0EE12402E3E168D0
:10A0A000E652E16E010EDB6A020EDB6AF90EDBCFCF
:10A0B000F6FFFA0EDBCFF7FFFB0EDBCFF8FF080051
:10A0C000F550DF6EDF5002E1C3EF54F0250EDF5C88
:10A0D00002E0B6EF54F0030EDB6A040EDB6A050EF5
:10A0E000DB6A060EDB6A070EDB6AD8EC54F02D0E35
:10A0F000DF5C0CE02B0EDF5C09E0200EDF5C06E08D
:10A10000230EDF5C03E0300EDF5C1AE1DF50300A23
:10A1100014E0130A0FE0030A0AE00B0A05E0060A3E
:10A12000E4E1030EDB80E1D7030EDB82DED7030E12
:10A13000DB84DBD7030EDB86D8D7030EDB88D5D7CD
:10A140002A0EDF5C1BE1D4EC54F022EC55F010E059
:10A15000030EDB8008680968130EDBCF0DF0140EC8
:10A16000DBCF0EF0F2EC64F0040E06C0DBFF03D090
:10A17000130E0BEC55F0D8EC54F00BD0090EDB6A43
:10A1800079EC55F003E0EDEC55F0FAD7090E0BEC45
:10A1900055F0030EDBB0DB982E0EDF5C1BE1D8EC34
:10A1A00054F02A0EDF5C0BE1D4EC54F022EC55F0B5
:10A1B00003E1130E5DEC55F0D8EC54F00BD0090E12
:10A1C000DB6A79EC55F003E0EDEC55F0FAD7090EB7
:10A1D0005DEC55F0680EDF5C07E1D8EC54F0680EDA
:10A1E000DF5C1DE1030E18D0740EDF5C17E07A0E01
:10A1F000DF5C14E0480EDF5C06E0540EDF5C03E039
:10A200005A0EDF5C02E1020E07D06C0EDF5C03E049
:10A210006A0EDF5C04E1010EB0EC55F0C9DBDF50E3
:10A220006E0A01E17FD31E0A01E192D1200A01E109
:10A230008FD13F0A01E149D11A0A01E146D10D0A45
:10A2400001E143D1200A01E140D13A0A01E13DD1C7
:10A25000200A01E13AD1260A01E135D10D0A01E1D6
:10A2600032D11A0A01E1D9D0200A4AE0300A1FE0AF
:10A27000460A0EE0250A01E083D3D950F90FE96EB2
:10A28000FF0EDA20EA6E010EEE5E000EEE5AEE5A76
:10A29000BEEC55F0250EE66E95DB03E1151C01E1E1
:10A2A00069D3BAEC55F001E26BD3DB2A69D3080E0F
:10A2B000DB6A040EDB50010806E2040EDB0482ECCC
:10A2C00055F0DB508BDB080EDB5009E0030EDB5052
:10A2D000010B05E172DB01E04DD3080EDB6A64DBA4
:10A2E000EFCFDFFF32EC56F003E1151C01E142D362
:10A2F000BAEC55F001E3DB2A60DB01E141D33AD34C
:10A30000070EDB5002080FE1FEEC55F0030EC5EC22
:10A3100055F00E0EEECFDBFF0F0EEECFDBFF100E73
:10A32000EECFDBFF20D0F70EDBCF17F0F80EDBCF40
:10A3300018F0020E175E000E185AF70E17C0DBFF5A
:10A34000F80E18C0DBFF17C0E9FF18C0EAFFB5EC34
:10A3500055F0166A0E0E14C0DBFF0F0E15C0DBFFA2
:10A36000100E16C0DBFF0E0EDBCFE6FF0F0EDBCFAD
:10A37000E6FF100EDBCFE6FFA2EC6EF0E552E552F1
:10A38000E552130E07C0DBFF140E08C0DBFF060EFC
:10A39000DB5005E0130EF9EC55F001E26ADB1DEC31
:10A3A00056F002E2130E37DBE0EC55F006E0040E47
:10A3B000F9EC55F002E2050E2EDB030EDBB005D002
:10A3C000FCDA01E0D7D2080EDB6A090EDB6A0E0E5A
:10A3D000DBCFF6FF0F0EDBCFF7FF100EDBCFF8FF62
:10A3E0000800F550DF6EDF5014E023EC56F011E268
:10A3F00032EC56F003E1151C01E1BCD2BBDB01E3FA
:10A40000DB2A090EDB2AD9500E0FE96E000ECBDBDA
:10A41000E7D7D3DA01E1B4D2ADD2C6DA110EEECF6E
:10A42000DBFF120EEDCFDBFF110EDBCFE6FF120ECE
:10A43000DBCFE6FF94EC6EF0E552E552130EF3CF5E
:10A44000DBFF140EF4CFDBFF060EDB5004E0130E2F
:10A45000D0DB01E20EDB1DEC56F002E2130EDBDA7C
:10A46000AFDB05E0040EC5DB02E2050ED4DA030E15
:10A47000DBB005D0A2DA01E07DD2080EDB6A090E5E
:10A48000DB6A110EDBCFE9FF120EDBCFEAFFEFCF65
:10A49000DFFFDF5014E0D7DB12E2E4DB03E1151C41
:10A4A00001E168D267DB01E3DB2A090EDB2A110E2A
:10A4B000DB2ADBCFE9FF120EE8E3DB2AE6D77DDA01
:10A4C00001E15ED257D2030EDB8E070EDB0410E1F2
:10A4D00095DB040E5ADB0A0EEECFDBFF0B0EEECF40
:10A4E000DBFF0C0EEECFDBFF0D0EEECFDBFF6CD0F3
:10A4F000070EDB5003082CE1030EDBAE0DD0B2DA01
:10A50000020E76DAEFCF14F0156A166A176A14AEE7
:10A5100039D01568166835D0F70EDBCF15F0F80E78
:10A52000DBCF16F0020E155E000E165AF70E15C0A0
:10A53000DBFFF80E16C0DBFF15C0E9FF16C0EAFF0F
:10A54000EFCF14F00A0E14C0DBFF0B0EDB6A38D01D
:10A55000070EDB50020809E1030EDBAE04D059DB25
:10A5600016AE10D00ED055DB0DD0030EDBAE12D0E0
:10A5700079DA020E3DDAF9DA166A176A15AE02D0F8
:10A5800016681768E2DA0C0E16C0DBFF0D0E17C056
:10A59000DBFF1AD0F70EDBCF16F0F80EDBCF17F08B
:10A5A000020E165E000E175AF70E16C0DBFFF80EED
:10A5B00017C0DBFF16C0E9FF17C0EAFFD6DAC5DA1D
:10A5C0000C0EDB6A0D0EDB6A060EDB5005E1010E98
:10A5D000F36E050EF3CFDBFF150EDB6A160EDB6A9A
:10A5E000D950370F146E000EDA20156E390E14C0D4
:10A5F000DBFF3A0E15C0DBFF380EDB6A080EDB6AA4
:10A600000A0EAEDADF50780A12E0200A10E0280ABB
:10A610000CE0200A0AE03F0A06E00D0A02E0200AE8
:10A6200008E1020E05D0080E03D0080EDF26100E3A
:10A6300097DA030EDBBE02D0DB92DB94DB50800B9B
:10A6400024E08ADAD890030EEB50000A08E6000EE8
:10A65000EE5C000EEE58000EEE58000EEE5815E2BD
:10A6600013DA0B680C680D680E685CEC6EF00A0E6D
:10A6700002C0DBFF0B0E03C0DBFF0C0E04C0DBFFD0
:10A680000D0E05C0DBFF2D0E08D0030EDBA202D09D
:10A690002B0E03D0DBA408D0200EF36E170EF3CFE1
:10A6A000DBFF150EDB2A02D0170EDB6A050EDB502E
:10A6B00003E1B7D901E189D09A0E146EDE0E156E52
:10A6C000000E166E070EDBCF17F0186A196A1A6AA9
:10A6D00017C00BF018C00CF019C00DF01AC00EF026
:10A6E000D3D9C7EC6EF014500224F36E155003203A
:10A6F000F46E16500420F86EF4CFF7FFF3CFF6FF98
:10A700000800090EF5CFDBFF580EDF5C0FE1610E8C
:10A71000F36E090E7BD90AE3200E146E090EDBCF0F
:10A72000E7FF1450E75E090EE7CFDBFF070EDBCF34
:10A7300014F0156A166A176A0FDA14C00BF015C008
:10A740000CF016C00DF017C00EF0EECF06F0EECFF5
:10A7500007F0EECF08F0EFCF09F0C7EC6EF009C0BC
:10A76000EDFF08C0EDFF07C0EDFF06C0EFFF390E9B
:10A77000DBCFE9FFDB063A0EDBCFEAFF01E2DB06C7
:10A78000090EDBCFEFFF150EDB2A4BD995E1030E47
:10A79000DBA61DD06F0EDF5C06E1C1D918E3150EF4
:10A7A000DB285BDA14D0780EDF5C09E0580EDF5C42
:10A7B00006E0620EDF5C03E0420EDF5C08E1020EA1
:10A7C000F36E160EF3CFDBFF02D0150EDB6A030E1D
:10A7D000DB50100B0EE0040EDBCF14F0050EDB5047
:10A7E000D880145406E2060EDB5003E1040EDB5061
:10A7F00034DA95D90AE2050EDBCFE7FF150EDB5000
:10A80000E75E050EE7CFDBFF02D0050EDB6A040E24
:10A81000DBCF14F0160E45D9D880145414E2160E6E
:10A82000DBCFE6FF150EDBCFE6FF040EDBCFE6FF46
:10A83000050EDB50E552E75CE552D880E754E5525F
:10A84000D880E7545FD9030EDB50010B0BE1080EF3
:10A85000DB5008E0B2D801E08DD0080EDB50BED846
:10A86000080EDB6A170EDB5007E088D9170EF1D906
:10A8700003E1151C01E17ED0160EDB5016E07ED9F7
:10A88000300EE66E9FD802E1151C74E077D9DFCF59
:10A89000E6FF1AEC6EF0E552E552E552F4CF15F002
:10A8A0000001F31C02E1151C65E0050EDBCF14F07E
:10A8B000160EDB50D880145409E2050EDBCFE7FFFB
:10A8C000160EDB50E75E050EE7CFDBFF300EE66EBF
:10A8D000050ECBD94FE1390EDB2ADBCFE9FF3A0E6B
:10A8E00001E3DB2ADBCFEAFF090EEFCFDBFFDB5012
:10A8F0000EE044D9090EADD902E1151C3BE0390E3A
:10A90000DB2ADBCFE9FF3A0EEDE3DB2AEBD755D8A4
:10A9100031E1160EDBCFE6FF080EC3D8E552E7247F
:10A920005DD82ED0070EDB50030A1CE0010A14E0AC
:10A93000030A07E07BD9DBCFEEFF020EDBCFEDFF92
:10A940001FD0F5D8196A17AE02D0186819682CD82C
:10A95000BCD819C0EEFF14D0EAD817BE186824D8A6
:10A96000B4D80ED063D9DBCFEFFF0AD07BD905E195
:10A97000151C03E1F368F46810D0FCD801E3DB2A6E
:10A9800079D95FEF50F0010EDBCF14F0020EDBCF70
:10A9900015F014C0F3FF15C0F4FF3B0EE15C02E2BA
:10A9A000E16AE552E16ECBD029D9020EC5EF55F030
:10A9B00061D90800F550DF6E1200200EE66E080E19
:10A9C00035EF56F01AEC6EF0E552E552E552F3CF52
:10A9D00014F0F4CF15F00001F31C1200146E156A88
:10A9E000D950010F4DD91450EE261550ED2212000A
:10A9F000185E000E195AF70E18C0DBFFF80E19C0CA
:10AA0000DBFF18C0E9FF19C0EAFF1200DBCFF4FF3B
:10AA1000F350F45C1200DB50E76E040EE7CFDBFF6F
:10AA200012000A0EDBCF14F00B0EDBCF15F00C0E6C
:10AA3000DBCF16F00D0EDBCF17F0145015101610EB
:10AA400017101200130EEECFDBFF140EEDCFDBFF5D
:10AA5000130EDBCF14F0140EDBCF15F00001800EC7
:10AA600015141200F70EDBCF18F0F80EDBCF19F03B
:10AA70001200050EDB50E66ED950130F01D9E552D6
:10AA8000E750EE6EED6A12000A0EDBCF06F00B0EF9
:10AA9000DBCF07F00C0EDBCF08F00D0EDBCF09F09B
:10AAA0001200DBCFE6FF150EDBCFE6FF050EDB5015
:10AAB000E552E724E552E7241200DB50CED8010E20
:10AAC000F36E060EF3CFDBFF1200EE50EFCFEAFF7E
:10AAD000E96E16C0EEFF17C0EEFF18C0EEFF1200C1
:10AAE000D9CFE6FFDACFE6FFE1CFD9FFE2CFDAFF39
:10AAF0001200DFCFE6FFE66A1FEC6FF0E552E55289
:10AB0000F3501200E76E080EE7CFDBFF1200EECF26
:10AB100014F0EECF15F0EFCF16F0176A1200050E05
:10AB2000DBCF14F0150EDB50D88014541200010E48
:10AB3000DBCF16F0020EDBCF17F0186A1200E552D9
:10AB4000E5CFDAFFE7CFD9FF12000A0E14C0DBFF12
:10AB50000B0E15C0DBFF1200D9500A0F40EF56F064
:10AB6000F36E070EF3CFDBFF1200EECF14F0EFCF42
:10AB700015F01200010EDB2A020E1200FC0EDBCFD4
:10AB8000E6FFFD0EDBCFE6FF1200145E000E155A45
:10AB9000F70E14C0DBFFF80E15C0DBFF14C0E9FF91
:10ABA00015C0EAFF1200DA20EA6EEF2AEECFF6FFB8
:10ABB000000EEF22EECFF7FFEF22EECFF8FF1200EC
:10ABC000040EDBCFE6FF130EDB50E552E75C9ADFA5
:10ABD000DB5004DF060EDB501200090EDB500A0DBD
:10ABE000F350DF24D00FE76E090EE7CFDBFFD8EF7D
:10ABF00054F0DB50F36E050E06EF55F0F70EDBCF89
:10AC000014F0F80EDBCF15F01200DFCFE6FFE2EF15
:10AC100054F028DF030EECDE87EF55F034EC50F0F3
:10AC2000E552E552E552E55200091200BDDEEE5054
:10AC3000EFCFEAFFE96E010E1200130EDB50F36E48
:10AC4000040E06EF55F0040EDB50F36E090E06EF0E
:10AC500055F0DBCFE6FFE2EF54F0E76E050EE7CFED
:10AC6000DBFF12008BDF05EF56F0DBCFE6FF86DF60
:10AC70000EEF56F0D950F90FE96EFF0ED3EF55F0F5
:0AAC8000E96E000EDA20EA6E120001
:06AC8A004CEC5BF0110030
:10AC9000D8CFE4FFE0CFE4FFE46E4CEC5BF0E5508E
:10ACA000E5CFE0FFE5CFD8FF10007FEC5AF0B5EC20
:10ACB0005AF0FDD742EC5BF053EC5BF0BC0E145C39
:10ACC000020E155807E35AEC5BF0BC0E165C020E40
:10ACD00017580DE253EC5BF05AEC5BF01650145C25
:10ACE0001750155802E2010E03D0020E01D0000EDB
:10ACF000E552E7CFD9FF120042EC5BF0420EE126AD
:10AD000073EC5BF0020100510001605D146E615153
:10AD100002010155156E145000019427155095231A
:10AD2000020102510001625D146E6351020103557C
:10AD3000156E145000019627155097230201C80E76
:10AD4000F5193BE1F65139E1E66AE66A230EE66E53
:10AD5000D90E47EC5BF094C014F095C015F0C80E06
:10AD60000D6E0E6A94C008F095C009F037EC5BF0E8
:10AD70000C0E166ED90EEEEC5AF0020E1AEC5BF0C9
:10AD800096C014F097C015F0C80E0D6E0E6A96C0EE
:10AD900008F097C009F037EC5BF0F50E166ED80E90
:10ADA000EEEC5AF0030E1AEC5BF00001946B956B1D
:10ADB000966B976B0201F56BF66BE66ADEEC5AF068
:10ADC00008E260C000F261C001F262C002F263C03A
:10ADD00003F2030EE66EF2DB03E20201060EEB6FF6
:10ADE0000201F52B000EF623420EE15C02E2E16A5D
:10ADF000E55232EF5BF0010EE66E6BEC5BF0020E9B
:10AE0000E66E19EC6AF0E552F3CF91F0F4CF92F0D0
:10AE1000F3CFE6FFF4CFE6FF8FC0E6FF90C0E6FF7A
:10AE200049DF61EC5BF00201E66FE85005E0F051AC
:10AE300003E1010EF06FE4DBE65102E1F06B000C80
:10AE4000F0510AE0E8DBE83407E214506408000E31
:10AE5000155402E2D5DB020CF0510BE0DCDBD880AC
:10AE6000E85004E79C0E145CFF0E155802E2C8DBA4
:10AE7000010E120042EC5BF0230EE126E66AE66A60
:10AE8000DF0EE66ED80E47EC5BF0B5DFE76E020E24
:10AE9000E7CFDBFFDB50020806E10201EC510008BE
:10AEA0000AE2EC0708D0020EDB0405E1050E020100
:10AEB000EC5D01E2EC2B0201ED51EC5D030804E1D5
:10AEC000020EED5D01E2ED2BED51EC5D04E1ED5183
:10AED000000801E2ED07010EDB6AEDC2DFFF040EA0
:10AEE0000201ED25DF5C26E2DFCFE6FFE66AC90E50
:10AEF000146ED80E156E166A14C0E6FFE66E16C004
:10AF0000E6FFD950030FE2DB20EC6DF0176E070E61
:10AF1000E15E1750DF500201EC5D04E19ADB9DEC2D
:10AF200067F003D096DB8EEC67F0CBDB010EDB2AFB
:10AF3000DF2AD5D7030EE66E85DB05E20201060E99
:10AF4000EB6F010EEC6FE66A7DDB09E20201EB6953
:10AF5000ECC2EBF1ECC2E6FF9EEC6DF0E552230E85
:10AF6000E15C02E2E16AE5527DD3D9CFE6FFE1CFB1
:10AF7000D9FF1B0EE1260201EB51090A01E181D242
:10AF8000010A01E10BD20F0A01E106D2010A01E137
:10AF9000CCD0030A01E1C3D0010A63E0050A5AE0FC
:10AFA000010A01E070D2ABEC66F0E66A04EC67F0EF
:10AFB000E552E66AE66A390EE66ED90EE66E70EC88
:10AFC00067F0E552E552E552E552E66A010EE66E9B
:10AFD000390EE66ED90EE66E70EC67F0E552E5527A
:10AFE000E552E552E66A020EE66E390EE66ED90EBD
:10AFF000E66E70EC67F0E552E552E552E552E66A1E
:10B00000030EE66EB30EE66ED80EE66E70EC67F0D9
:10B01000E552E552E552E552E66A040EE66E390E57
:10B02000E66ED90EE66E70EC67F0E552E552E55239
:10B03000E552E66A060EE66E390EE66ED90EE66E4B
:10B0400070EC67F0E552E552E552E5520201010E5F
:10B05000EB6F1AD223DA010803E10201040EEB6F51
:10B0600013D2E66AE66A9D0EE66ED80EE66E70ECC6
:10B0700067F0E552E552E552E552E66A010EE66EEA
:10B08000870EE66ED80EE66E70EC67F0E552E5527C
:10B09000E552E552E66A020EE66E710EE66ED80ED5
:10B0A000E66E70EC67F0E552E552E552E552E66A6D
:10B0B000030EE66E5B0EE66ED80EE66E70EC67F081
:10B0C000E552E552E552E552E66A040EE66E450E9B
:10B0D000E66ED80EE66E70EC67F0E552E552E5528A
:10B0E000E552E66A050EE66E390EE66ED90EE66E9C
:10B0F00070EC67F0E552E552E552E552E66A060E5D
:10B10000E66E2F0EE66ED80EE66E70EC67F0E55236
:10B11000E552E552E5520201050EEB6FB5D1BED9FD
:10B12000010802E10201EB2BAFD165DEE76E1A0EDA
:10B13000E7CFDBFF1A0EDB50020807E10201EC51FA
:10B14000000802E20201EC0709D01A0EDB0406E156
:10B15000030E0201EC5D02E20201EC2BE66AE66AF4
:10B160001B0EE66ED80EE66E70EC67F0E552E55207
:10B17000E552E552E66A010EE66EF3C2E6FFF4C25E
:10B18000E6FF70EC67F0E552E552E552E552020148
:10B19000EC510EE1E66A020EE66E050EE66ED80E82
:10B1A000E66E7FEC67F0E552E552E552E5520DD0D0
:10B1B000E66A020EE66E050EE66ED80EE66E70ECDE
:10B1C00067F0E552E552E552E5520201EC050EE169
:10B1D000E66A030EE66EEF0EE66ED70EE66E7FECC5
:10B1E00067F0E552E552E552E5520DD0E66A030EEE
:10B1F000E66EEF0EE66ED70EE66E70EC67F0E55287
:10B20000E552E552E552020E0201EC5D0EE1E66AFE
:10B21000040EE66ED90EE66ED70EE66E7FEC67F092
:10B22000E552E552E552E5520DD0E66A040EE66EAF
:10B23000D90EE66ED70EE66E70EC67F0E552E55279
:10B24000E552E552030E0201EC5D0EE1E66A050EE1
:10B25000E66EC30EE66ED70EE66E7FEC67F0E55243
:10B26000E552E552E5520DD0E66A050EE66EC30ED4
:10B27000E66ED70EE66E70EC67F0E552E552E552E9
:10B28000E552E66A060EE66EF3C2E6FFF4C2E6FF9A
:10B2900070EC67F0E552E552E552E552E66A19ECCA
:10B2A0006AF0E552DE52F3CFDEFFF4CFDDFFDD5270
:10B2B000010EDBCF14F0020EDBCF15F0580E145C3C
:10B2C000020E155868E20201EC51030A62E0010A1D
:10B2D00051E0030A3CE0010A01E05DD00201EB69A4
:10B2E0000101EB6BEBC1E6FF9EEC6DF0E552DF6A0E
:10B2F000DFCF14F00201E051145C000EE15520E2B2
:10B30000DF50040DF3CFE9FFF4CFEAFF180EE92672
:10B31000020EEA22F60EEE6EED68DF50040DF3CF5A
:10B32000E9FFF4CFEAFF180EE926020EEA22020E28
:10B33000E926000EEA22F60EEE6EED68DF2AD8D777
:10B34000020E0201E06FE16B02010E6B24D00201DC
:10B35000090EEB6F640EE66EE66A87EC66F0E55266
:10B36000E552E66A04EC67F0E5520201EC6B02017B
:10B37000ED6B11D00201070EEB6F640EE66EE66A0C
:10B3800087EC66F0E552E552E66A04EC67F0E552B8
:10B3900002D0FF0000D078D0AFDC76D0E66A04ECB3
:10B3A00067F0E5520EC214F0156A14BE156814C099
:10B3B000E6FF15C0E6FFB20E166ED70E176E186ABE
:10B3C00016C0E6FF17C0E6FF18C0E6FFD950060F0B
:10B3D000E66E000EDA20E66E20EC6DF0196E070EB8
:10B3E000E15E1950E66A030EE66ED950060FE66E6E
:10B3F000000EDA20E66E8EEC67F0E552E552E5527B
:10B40000E5520FC214F0156A14BE156814C0E6FFA9
:10B4100015C0E6FF9F0E166ED70E176E186A16C07F
:10B42000E6FF17C0E6FF18C0E6FFD950060FE66E2C
:10B43000000EDA20E66E20EC6DF0196E070EE15E6C
:10B440001950E66AE66AD950060FE66E000EDA2059
:10B45000E66E8EEC67F0E552E552E552E552D00E0D
:10B46000E66E070EE66E87EC66F0E552E5520201E5
:10B47000060EEB6FE66A04EC67F0E5520101EB6B38
:10B4800003D0F8DC01D000D01B0EE15C02E2E16ADF
:10B49000E552E16EE552E7CFD9FF120081B01FD02F
:10B4A0000201F8C214F0F9C215F0FAC216F0FBC29C
:10B4B00017F0F82B000EF923FA23FB23D880D00EC7
:10B4C0001454070E1554000E1654000E175416E2AD
:10B4D000F86BF96BFA6BFB6B010EF76F000C020156
:10B4E000F7050CE1F851F911FA11FB1102E1F76BC4
:10B4F000010CF807000EF95BFA5BFB5B000CC2D88D
:10B50000020EE1260F0EC112580EDE6E020EDD6E27
:10B510009B8CDFCF14F0DF06010EDBCF15F001E2CC
:10B52000DB0614501510F5E10F014869496906D88A
:10B53000020EE15C02E2E16AE55294D0949C8B8CAD
:10B54000828C16EC6AF081EC6AF0B6EC68F08B8EB7
:10B55000828EE66AF2EC5FF0E5520101EB6BEBC123
:10B56000E6FF9EEC6DF0E55212008CD8020EE1264B
:10B57000FF0E0201EB5D17E1B2EC5BF0ACEC61F0A9
:10B580000001A80504E1A86B0201080EEB6F030E91
:10B59000E66E14D808E20201060EEB6FEC6BE66A69
:10B5A00004EC67F0E552D4EC6CF0000901E0DDDC5E
:10B5B000020EE15C02E2E16AE55254D019EC6AF055
:10B5C000E552F3CFDEFFF4CFDDFFDECF14F0DDCFA9
:10B5D00015F0580E145C020E15581200176E186AFA
:10B5E00016C0E6FFE66E18C0E6FFD950020F6ED80F
:10B5F00020EC6DF0196E070EE15E1950E66A12003C
:10B60000000191518F5D0201EE6F0001925190593E
:10B610000201EF6F1200000191518F5D166E905183
:10B620009255176E02011650EE5D146E1750EF59C9
:10B63000156E1200E66ED950020F48D88EEC67F0F6
:10B6400061EF5BF048D80001580EF35C020EF4582D
:10B650001200E66A010EDB50020FE66ED950030FAE
:10B6600066EF5BF0E16EE552E7CFD9FF1200CCEC5C
:10B6700064F008C014F009C015F008C0E6FF09C066
:10B68000E6FF1200D9CFE6FFE1CFD9FF1200E66E48
:10B6900070EC67F061EF5BF0DACFE4FFE652E55261
:10B6A000E5CFDAFF1200FD0EDBCF14F0FE0EDBCF8C
:10B6B00015F01200FB0EDBCF16F0FC0EDBCF17F0FF
:10B6C0001200E552E552E552E5521200E66E000E18
:10B6D000DA20E66E120019EC6AF0E552F3CF8FF033
:06B6E000F4CF90F012000F
:0AB6E600D9CFE6FFE1CFD9FF020E35
:10B6F000E126ABDB030E37DB00011410606F15C0D1
:10B7000061F0200E0D6E0E6A60C008F015C009F0E1
:10B71000CCEC64F008C060F009C061F0040E95DB69
:10B72000050E21DB00011410626F15C063F0200EBE
:10B730000D6E0E6A62C008F015C009F0CCEC64F022
:10B7400008C062F009C063F0060E7FDB070EBDDBA8
:10B75000020EE15C02E2E16AE552E16EE552E7CFFA
:10B76000D9FF1200D9CFE6FFE1CFD9FF0A0EE126BB
:10B77000DE6ED70EDE6E230EDE6E3D0EDD6EDD520A
:10B78000DD52D9CFE9FFDACFEAFFEECF14F0EECFEA
:10B7900015F088DB14C00CF015C00DF016C00EF0CB
:10B7A00017C00FF0E2C207F0E3C208F0E4C209F0EC
:10B7B000E5C20AF076EC63F007C0E2F208C0E3F2FB
:10B7C00009C0E4F20AC0E5F28EDF0201010E165F45
:10B7D000000E175B1651171101E05DD287DA75EC88
:10B7E00065F0010A18E07ADBEDDA01E034DBD5DA46
:10B7F0008CDAA8DB01E037DB79DAA4DB04E176DB65
:10B80000A1DB01E138DBA2DB1EE1C7DA87DADADA95
:10B810001AE139DB18D06ADBD5DA01E02CDBBDDABE
:10B820007DDA90DB01E02FDB82DA8CDB04E156DB92
:10B8300089DB01E110DB7BDAC5DA05E1AEDA65DA36
:10B84000C1DA01E110DBE0C214F0E1C215F0140628
:10B85000000E155A080E14C0DBFFDB5000083AE258
:10B86000090EDB6A020EF36E090EDBCFF4FFF35014
:10B87000F45C2DE2080EDB04040DF3CF18F0F4CFD6
:10B8800019F0180E1826020E1922090EDB50020DAF
:10B890001850F324E96E1950F420EA6E03DB080E09
:10B8A000DB50040DA9DA180E1426020E1522090E1B
:10B8B000DB50020D1450F324E96E1550F420EA6EAB
:10B8C00016C0EEFF17C0EDFF090EDB2ACBD7080E1E
:10B8D000DB06C3D723DA46EC65F008C018F209C0CE
:10B8E00019F213DA46EC65F008C01AF209C01BF22F
:10B8F000020102510001625D186E6351020103559D
:10B9000019DA39DA020100510001605D186E6151E7
:10B91000020101550FDA38DA72C07EF073C07FF091
:10B9200074C080F075C081F06CDA010E00018A6F7E
:10B930008B6B8C6F8D6B0ADB0FE1ADDADFDA5FECBE
:10B9400064F007C07EF008C07FF009C080F00AC034
:10B9500081F000018A698B69B3DA5CDA33DA08E1D5
:10B960009ADA58DA5FEC64F04CDA00018C698D6980
:10B97000EFD945E100018A518A25146E8B518B2144
:10B98000156E020E141801E1155008E0FE0E141891
:10B9900007E1E868151804E1010E01D0020E8E6F70
:10B9A00002011451151123E18AC0E8FF100324DAC3
:10B9B0001103F350000115268BC0E8FF02011003AC
:10B9C000F35000011526141C12E1151C10E12BDAAE
:10B9D00010C20DF011C20EF08CD9CDD971DAF2D9A6
:10B9E00003E10001010E49D00001020E46D01BDA2E
:10B9F0008AC00DF08BC00EF07CD9BDD947D00001B4
:10BA00008C518C25146E8D518D21156E020E1418DB
:10BA100001E1155008E0FE0E141807E1E86815185A
:10BA200004E1030E01D0040E8E6F0201010E141901
:10BA300026E1155124E18CC0E8FF1203DDD9130380
:10BA4000F350000115268DC0E8FF02011203F350E8
:10BA500000011526141C13E1151C11E1EDD912C2C9
:10BA60000DF013C20EF045D98FD92ADAABD903E114
:10BA70000001030E02D00001040E8E6F07D0DCD946
:10BA80008CC00DF08DC00EF034D97ED940DA0DD9BE
:10BA900045D976EC63F007C066F008C067F009C0CE
:10BAA00068F00AC069F03CDA00D92FD976EC63F06F
:10BAB00007C06AF008C06BF009C06CF00AC06DF0F6
:10BAC00047D903E10201146B03D0010E0201146F88
:10BAD000156B3CDA04E102011069116904D0010E12
:10BAE0000201106F116B23D96DD904E102011269B3
:10BAF000136904D0010E0201126F136B010EF36E75
:10BB0000080EF3CFDBFFDBCF14F0E0C215F0E1C28B
:10BB100016F01506000E165A1550145C000E165439
:10BB20002BE254D9EECF14F0EFCF15F014501819C2
:10BB300020E1155019191DE149D9020EE926000E20
:10BB4000EA22B0D916501A1914E117501B1911E145
:10BB50000001010EA86F02010F51E76E0E19E8AE49
:10BB600002D00E3503D0E750D8800E5502E20EC247
:10BB70000FF2080EDB2AC7D718C208F019C209F065
:10BB800062EC63F094D906C20CF007C20DF008C253
:10BB90000EF009C20FF075EC65F0010A43E11AC21C
:10BBA00008F01BC209F062EC63F0C3D90AC20CF0C2
:10BBB0000BC20DF00CC20EF00DC20FF075EC65F06B
:10BBC000010A30E1F2EC6EF017D9100EEDD8D890E2
:10BBD00014361536E806FBE105D907C006F208C0A1
:10BBE00007F209C008F20AC009F2F2EC6EF004D9BB
:10BBF000080EDAD8D89014361536E806FBE1F2D8EC
:10BC000007C00AF208C00BF209C00CF20AC00DF21C
:10BC10000201320EE05D000EE15903E2E02B000E5E
:10BC2000E1230E2B0A0E0201166F176B1E0EE76E34
:10BC30000E19E8AE02D00E3503D0E750D8800E556D
:10BC400002E2060E26D00E0EE76E0E19E8AE02D006
:10BC50000E3503D0E750D8800E5502E2070E19D0FA
:10BC6000090EE76E0E19E8AE02D00E3503D0E7508C
:10BC7000D8800E5502E2080E0CD0030EE76E0E19A6
:10BC8000E8AE02D00E3503D0E750D8800E5503E25F
:10BC9000090E166F176B0A0EE15C02E2E16AE552CB
:10BCA000E16EE552E7CFD9FF1200000EDFCF0CF0B6
:10BCB000010EDBCF0DF0020EDBCF0EF0030EDBCF5B
:10BCC0000FF05FEC64F035D90C6A0D6A200E0E6E31
:10BCD000410E0F6E5FEC64F0EAD807C00CF008C0AC
:10BCE0000DF009C00EF00AC00FF01200E9D887EF7E
:10BCF0005FF0F2EC64F006C014F007C015F006C067
:10BD000008F007C009F062EF63F06AC007F06BC08B
:10BD100008F06CC009F06DC00AF0120066C007F0B0
:10BD200067C008F068C009F069C00AF01200C8D8FE
:10BD300090EF5FF0196E18C008F0096E62EC63F0C6
:10BD4000B6D80C6A0D6A0E6A400E0F6E0CEF64F0E6
:10BD500082C00CF083C00DF084C00EF085C00FF0DF
:10BD6000CDD8A2EF5FF0B1D8DBCF14F014C015F03E
:10BD7000146ADF50120007C072F008C073F009C0E7
:10BD800074F00AC075F0120007C076F008C077F0B2
:10BD900009C078F00AC079F012000C6A0D6A800EB2
:10BDA0000E6EC00E0F6E12000D6E0E6AF3CF08F00D
:10BDB000F4CF09F0CCEC64F004C014F005C015F029
:10BDC000030E120085EC65F0010A1200080EDB502C
:10BDD000040DF3CFE9FFF4CFEAFF180EE926020EB7
:10BDE000EA221200040E1426000E152214C008F0D8
:10BDF00015C009F062EF63F0F3CF14F0F4CF15F043
:10BE0000120007C082F008C083F009C084F00AC0A5
:10BE100085F0120082C007F083C008F084C009F0EA
:10BE200085C00AF012000001766B776B786B796B36
:10BE3000140E086E096A12000001726B736B746B4A
:10BE4000756B140E086E096A1200E66E99EC69F0C3
:10BE5000E552DF6E120000016A6B6B6B800E6C6F37
:10BE6000400E6D6F120000016A6B6B6B700E6C6F91
:10BE7000420E6D6F12000001666B676B800E686F7B
:10BE8000400E696F12000001666B676BF80E686FF9
:10BE9000420E696F12000C6A0D6A800E0E6EBF0EA4
:10BEA0000F6E1200EECF16F0EFCF17F0120007C0A2
:10BEB00014F008C015F009C016F00AC017F01200FF
:10BEC0000C6A0D6A0E6A0F6A1200E66E99EC69F050
:10BED000E552E76E010EE7CFDBFF12000C6A0D6A38
:10BEE000880E0E6E420E0F6E85EF5EF00C6A0D6AC4
:10BEF000040E0E6E430E0F6E8EEF5EF07EC007F0E6
:10BF00007FC008F080C009F081C00AF0120072C042
:10BF100007F073C008F074C009F075C00AF0120091
:10BF200076C007F077C008F078C009F079C00AF051
:10BF3000120007C018F008C019F009C01AF00AC0B2
:10BF40001BF012007CEC65F0010A1200CFDEE2EF7C
:02BF50005EF0A1
:0EBF52003BDB020EDB6A030EDB6A57DA04E605
:10BF6000080E145C000E155836E220DBB00E1424C7
:10BF70008ADA020E88DA100E86DADE6ADD6A53DAB1
:10BF800004E6800E145C000E15581FE2DECF16F09A
:10BF9000DDCF17F0800E086E096A020EDBCF0DF0C0
:10BFA000030EDBCF0EF0F2EC64F016500624146E94
:10BFB000175007202FDAEF50E66E01EC67F0E552DC
:10BFC000DF2A010EDCE3DB2ADAD7020EDB2A030EBE
:10BFD000C5E3DB2AC3D7040EE15C02E2E16AE55265
:10BFE000E16E2DD227DA020EE126DE6ADD6A1BDA67
:10BFF00004E6000E145C040E15580FE2DE5000013A
:10C00000A625E96EDD50A721EA6EFE0EDBCFEFFF1D
:10C01000DF2A010EECE3DB2AEAD7020EE15C02E242
:10C02000E16AE552E16E0BD2D0DAFE0EDE6EDD681B
:10C03000FAD904E6030E145C000E15586BE2FE0EEE
:10C0400014DAE4D904E6030E145C000E15585DE220
:10C0500013DA146EDD501720156EE83405E2145023
:10C060007F08000E15544BE307DADD501720156EDC
:10C07000800E151444E1FD0EDB50216E226A020E83
:10C08000DB5021241F6E030EDB502220206E070E92
:10C090001F16000E2016010E1FC0E7FFE75204E036
:10C0A000E846FE0BE706FCE11E6EFE0EDB50186E46
:10C0B000196ADE501824166EDD501920176EFD0E19
:10C0C000DB501C6E1D6A020EDB501C241A6E030E20
:10C0D000DB501D201B6E030ED8901B321A32E80471
:10C0E000FBE1070ED8901A361B36E806FBE1165026
:10C0F0001A24146E17501B208DD91E50EF12020EF9
:10C10000DB2A030E9EE3DB2A9CD7DF2A010E90E395
:10C11000DB2A8ED7040EE15C02E2E16AE552E16EB1
:10C120008ED188D9FE0EDB507F0826E3000EF36E19
:10C13000FE0EDBCFF4FFF350F45C1EE3FD0EDB508C
:10C14000070B196E010E195204E0E846FE0B1906A2
:10C15000FCE1186EFE0EDB50166E176AFD0EDB401A
:10C16000E840E8401F0B800D1650F324146E175062
:10C17000F42050D91850EF1262D127DAFA0EDB50B2
:10C18000050A01E1ACD0010A67E0050A42E0020AB3
:10C1900025E0010A01E0D9D07BD9FAD90EDADB28F3
:10C1A00062DA020FA9D90DDADB5039DAFE0F11DAA3
:10C1B000FC0F4ADAFD0F69DABCD9DB50FE0F15DA45
:10C1C00011D968DA020F43DA030FC3D9E6D930DA9E
:10C1D000020F13DA3FDA56DA42D95ED059D9D8D9EC
:10C1E0000CDA2CDA4FDAFE0FFDD8DB0499D9FE0FFA
:10C1F000BDD903DA29DA030F67D9FE0FF6D912DAAF
:10C20000030FA7D9CAD9E5D906DACCD9030FF5D9D6
:10C2100048D03ED937DAFD0FD0D9DB50020F0EDA05
:10C2200031DAFE0FDED9FE0FCCD9DB2820DA020F7F
:10C2300077D9FD0F09DAFE0F28DA06DA020F79D96D
:10C2400029DA030F04DA040F02DAF5D9020FF0D964
:10C250005CD9A8D904D91BD01BD9DB04C6D8FD0FE3
:10C26000CCD901DA020FEAD9DB2801DA020F58D95A
:10C27000FD0F7CD9C2D9E8D9020F26D9FD0FB5D957
:10C28000D1D9020F66D9DB28E5D9DB04E66EFE0EB4
:10C29000DB50030FB2D9E66EFE0EDB50030F99D9C7
:10C2A000020FA3D8030F95D9030F9FD8030F91D97D
:10C2B000B6D9030F8ED9FC0F5ED9FD0F5CD9A0D97A
:10C2C000040F8FD9040FB4D9040F97D954D9020F92
:10C2D00052D9030F50D9A3D9040F55D936D0FC0E2B
:10C2E000DE6EDD68A0D804E6050E145C000E15585D
:10C2F0002CE2FC0EBAD88AD804E6050E145C000EB7
:10C3000015581EE2FD0EDB50166E176A020EDB504A
:10C310001624146E030EDB501720156E145065D8CA
:10C320001A6E1B6ADE501A24186EDD501B20196E1F
:10C33000185029D9020EDB2A030EDDE3DB2ADBD7F6
:10C34000DF2A010ECFE3DB2ACDD7040EE15C02E247
:10C35000E16AE552E16E73D06DD8E652E66A42DEDC
:10C36000E552DF6ADFCF14F00201E051145C000EE9
:10C37000E1551AE2DF5003E18EC0E6FF02D0050E60
:10C38000E66E180EE66E020E5ED8020EE926000E6C
:10C39000EA22EF5058D8EF50E66EEFDE146E050E2D
:10C3A000E15E1450DF2ADED70AC207F00BC208F0A4
:10C3B0000CC209F00DC20AF01FEC65F00950E66EE0
:10C3C00006C207F007C208F008C209F009C20AF065
:10C3D0001FEC65F00950E66E27DEE552E552B9DD47
:10C3E000E5522DD0D0D8FD0E1200E66EFE0EDB50C9
:10C3F0001200FE0EDBCFE6FF94DEE552E55212009E
:10C40000C2D8FD0EDBCFE6FFFE0E1200CFD8D890CB
:10C4100015501200156E0001A6511424E96EA751A3
:10C420001520EA6E1200DECF14F0DDCF15F0D890A3
:10C4300015501200D9CFE6FFE1CFD9FF1200E55227
:10C44000E7CFD9FF1200E66EDF50040DF3CFE9FF0E
:10C45000F4CFEAFF180EE926020EEA221200030FBB
:10C4600092D8FD0EDBCFE6FF1200F36E020EF3CF83
:10C47000DBFF030EDB681200FE0EDB50166E176A40
:10C48000DE5016241200E66EFEEC66F0E552120055
:10C49000FD0EDB50D0D8FC0FEED8FC0F9AD8B0D8E8
:10C4A000FC0F9FD8FC0FC4D8FC0FA7D8E7D8020F09
:10C4B000E5D8030FE3D8B3D8FC0F8BD8BCD8FD0F59
:10C4C000DAD8FD0FF2EF61F0BFD8040FBDD8FC0F32
:10C4D00083D8FD0F81D8FE0FE66E8BDFFD0EDB04E7
:10C4E00092D8DB2879D8020F77D8030F75D8040FBC
:10C4F00073D8FC0F27EF63F0B6D8030FB4D88FD8EA
:10C50000FD0F67D898D8FE0F1200020F62D887D8A7
:10C51000020F5FD890D8030FAED8030FF2EF61F08F
:10C52000A6D8030FA4D87BD8FE0F53D8FC0F24EF56
:10C5300063F08AD8030F88D8040F86D8FC0F63D81D
:10C54000DB50040F49D8FC0F82D8FD0F4ED8F2EF14
:10C5500061F07DD8040F7BD86ED8020F8CD8020F03
:10C56000F2EF61F0DB2849D827EF63F042D83ADFD9
:10C57000DB04F9EF62F039DF040FE9EF62F07BD8FA
:10C58000FE0FF2EF61F0E66ECCDDE552E5521200EF
:10C5900079D8FD0F26D8FD0F120074D8020F21D8CC
:10C5A000020F12006FD8030FF1EF62F0020EDBCF23
:10C5B00014F0030EDBCF15F012003AD8FD0FF2EFA6
:10C5C00061F036D8FE0FF2EF61F034DF040EE126A1
:10C5D000120008DFDB501200E66E0BDFFD0EDB50B1
:10C5E000120000DFDB04F5EF61F0E66EFE0EDB28E3
:10C5F0001200E66EFE0EDB041200F4DEDB281200F1
:10C60000FE0FF5EF61F0E66EF4DEFD0EDBCFE6FF28
:10C61000F0DEFD0E1200030FE8DE85EF62F0040F7E
:10C62000F5EF61F0DFDEDB04E66EFE0EB2EF62F0E6
:10C63000E7DEDB501200FC0FF5EF61F05DDFBFEFCE
:10C6400062F0FD0FF5EF61F0D4DFE9EF62F0CDDFCE
:10C65000E9EF62F0CADE020FBCDF020FC6DE020F96
:10C66000B8DF0BEF63F0C1DEFD0FE9EF62F0BDDE76
:10C67000FE0FE9EF62F0ADDF21EF63F0B6DEFC0FF5
:10C68000E9EF62F0DB5000EF63F070DFB9DEDB044E
:0EC69000FDEF62F0DB04A9DFB3DEB2EF62F073
:02C69E00019EFB
:10C6A00005D0019E09AE02D0096C018E09C003F0CD
:10C6B000026A136A126A860E046E056AFFEF65F05D
:10C6C000019E08D0019E09AE05D0086C091EE86ADB
:10C6D0000922018E09C003F008C002F0136A126A31
:10C6E0008E0E046E056AFFEF65F00F7E016A3BEC6B
:10C6F00066F053EC66F001B6E3EF65F001A20AD0F4
:10C7000001AA03D001BEE3EF65F001A4EFEF65F0ED
:10C71000ECEF65F001AA05D001ACEFEF65F0ECEFAE
:10C7200065F001A00AD001A808D001BE04D001A480
:10C7300002D0F8EF65F0FCEF65F0126A056A0F5061
:10C740000A5C116E10E307C013F008C002F009C0C4
:10C7500003F00AC010F00CC007F00DC008F00EC0C6
:10C7600009F0013A09D00CC013F00DC002F00EC060
:10C7700003F00FC010F0116C019E01BC018E10C0BF
:10C7800004F001B02BEF66F01A0E11602BEF66F08B
:10C79000046A0A6A01A408D0076C081E091E0A1E52
:10C7A000E86A082209220A2201AC08D0136C021E92
:10C7B000031E041EE86A022203220422066A1152A2
:10C7C00007E00A340932083207320632112EF9D74F
:10C7D0000750132608500222095003220A5004224F
:10C7E00006C012F0019E04AE0BD0126C131E021E86
:10C7F000031E041EE86A1322022203220422018E71
:10C8000004A006D0D8800332023213321232102A2A
:10C8100010C004F0FFEF65F0016A3BEC66F053ECEA
:10C8200066F001B6E3EF65F001A205D001BAE3EFCF
:10C8300065F0EAEF65F001BAF6EF65F001A005D00A
:10C8400001B8E3EF65F0F6EF65F001B8EAEF65F0E7
:10C85000056A7F0E0A24046EE86A05220F50045E02
:10C86000E86A055A1A0E106E0A6A126A136A026A98
:10C87000036A0C50075E0D50085A0E50095A000EFC
:10C880000A5A09E70C5007260D5008220E500922BB
:10C89000000E0A2201D0128AD890073608360936CF
:10C8A0000A36D8901236133602360336102EE1D7E8
:10C8B000095008100710D8A4128AFFEF65F0016A2A
:10C8C0003BEC66F053EC66F001B6E3EF65F001A2D5
:10C8D00005D001B8E3EF65F0EAEF65F001AA05D0F5
:10C8E00001B0E3EF65F0EAEF65F001B002D001A816
:10C8F00002D0F6EF65F0056A0F500A24046EE86A6C
:10C9000005227E0E045EE86A055A126A136A026AFC
:10C91000036A0E500902F4CF03F0F3CF02F00D507A
:10C920000902F3501326F4500222000E03220E5087
:10C930000802F3501326F4500222000E03220C507A
:10C940000902F3501226F4501322000E0222032291
:10C950000D500802F3501226F4501322000E02224A
:10C9600003220E500702F3501226F4501322000E39
:10C97000022203220C500802F4501226000E132249
:10C98000022203220D500702F4501226000E132239
:10C9900002220322FFEF65F0006A0EAED5EF64F0CD
:10C9A0000D6C0E1EE86A0E22001E09AEDDEF64F06B
:10C9B000086C091EE86A0922001E09EC6FF009BE26
:10C9C000EDEF64F000AE000C086C091EE86A092265
:10C9D000046C051EE86A0522000C00BEE4EF64F05A
:10C9E0000188FF0C09C013F008C012F008500D02B6
:10C9F000F4CF07F0F3CF06F009500E02F4CF09F0A0
:10CA0000F3CF08F00D02F3500726F4500822E86A2D
:10CA1000092212500E02F3500726F4500822E86A49
:10CA200009220EAE18EF65F01250085E1350095A35
:10CA300013AE000C0D50085E0E50095A000C016A2E
:10CA40003BEC66F001B629EF65F001A20AD001B413
:10CA500003D07F0E096E19D0800E096E16D0096AB8
:10CA600014D001B0FCD7870E0A60F1D77E0E0A649D
:10CA7000F6D7860E0A5C04E0D89009320A2AF9D764
:10CA800001A403D0096C09AEEAD71200016A3BEC9D
:10CA900066F001B650EF65F001A20ED001B405D0EA
:10CAA0007F0E096EFF0E086E1FD0800E096E086A99
:10CAB0001BD0096A086A18D001B0FBD78F0E0A6034
:10CAC000EDD77E0E0A64F5D78E0E0A5C05E0D8908D
:10CAD000093208320A2AF8D701A406D0086C091EC8
:10CAE000E86A092209AEE5D712008EEC65F001B6BE
:10CAF000000C01B0010C000C8EEC65F001B6000CCE
:10CB000001B0000C01B4000C010C8EEC65F001B614
:10CB1000000C01B0000C01A4000C010C016A3BECFC
:10CB200066F053EC66F001B6120001AE08D001A029
:10CB300004D001A802D001801200019012000F5011
:10CB40000A5C0BE10E50095C08E10D50085C05E140
:10CB50000C50075C02E101801200D8A002D0018EC7
:10CB600010D00A500FC00AF00F6E09500EC009F025
:10CB70000E6E08500DC008F00D6E07500CC007F087
:10CB80000C6E0F500A5C10E0FF0F09E0019001B439
:10CB900003D001AE0184120001AE019412000F2AED
:10CBA000D8900E320D320C320C50075E0D50085AE0
:10CBB0000E50095A09BEEAD7D8900736083609360A
:10CBC0000A2EF8D7C8D77F0E0A6EFF0E096E086EC0
:10CBD000076E12007F0E01BEFF0E0A6E02D07F0E9E
:10CBE0000A6E800E096E086A076AF3D701AE04D098
:10CBF000800E0A6E096AF7D70A6A096AF4D70350E9
:10CC0000021013101210F8E005BEF0D703BE0CD0CE
:10CC100004500510EBE0D890123613360236033676
:10CC20000406D8A00506F2D70550D4E10428D2E0C6
:10CC300012AE11D07F0E121402E113A00CD0132AF1
:10CC4000E86A0222032207E3D88003320232133259
:10CC5000042A0428BFE00450C9E013C007F002C052
:10CC600008F00334096E04300A6E09320A9E01BED0
:10CC70000A8EE9EF65F009360A3602E30184017E87
:10CC800006E101800A6A096A086A076A12000A282E
:10CC900003E0D88009321200D890093202E1018203
:10CCA0001200018612000E360F3602E3018C017E5F
:10CCB00006E101880F6A0E6A0D6A0C6A12000F28DD
:10CCC00003E0D8800E321200D8900E32EAE1018AD9
:10CCD000120008C012F008500D02F4CF07F0F3CF95
:10CCE00006F009500E02F4CF09F0F3CF08F00D0260
:10CCF000F3500726F4500822E86A092212500E0267
:0ECD0000F3500726F4500822E86A0922000CBE
:02CD0E00D4D976
:10CD1000FD0EDBCF14F0DB06FE0EDBCF15F001E2DB
:10CD2000DB061450151010E0DE6ADD6ADECF14F069
:10CD3000DDCF15F0E30E145C0D0E1558E9E2DF2A85
:10CD4000010EF4E3DB2AF2D7020EE15C02E2E16AB3
:10CD5000E552E16E71D102DA060EE1268D929692CD
:10CD60008D9096908D8496948A9A939A8C92A8D955
:10CD700084D902E297D9FCD78C82A2D97ED902E26B
:10CD800091D9FCD7AE0E42D9DB0E40D9230E3ED945
:10CD9000D90E3CD9220E3AD9A10E38D9C80E36D9AF
:10CDA000DA0E34D9120E32D9A80E30D93F0E2ED950
:10CDB000D50E2CD9A00E2AD9810E28D9600E26D9DD
:10CDC000D30E24D9E66ACFD9A60E20D9AD0E1ED92E
:10CDD0008B0E1CD9AF0E1AD90A0EE66EE66A97DFE3
:10CDE000E552E552A40E12D9400E10D9ACD9060E68
:10CDF000E15C02E2E16AE552E16E1ED14BD98A9A0A
:10CE0000A7D148D98A8AA4D157D9B00EDF6EB80EFF
:10CE1000DF5C1BE2DFCFE6FFA6D995D9010EDB6A06
:10CE2000DB50146E156AD890155004E6840E145C1D
:10CE3000000E155808E2FE0EDBCFE6FFE2DFE552FA
:10CE4000010EDB2AEDD7DF2AE2D7020EE15C02E217
:10CE5000E16AE552E16EF0D03FD9F6BEF768C8D876
:10CE60000800F550D6D8F6BEF768C2D8010E5FD9D3
:10CE7000F6BEF768BDD8020E5AD9F6BEF768B8D824
:10CE8000030E55D9F6BEF768B3D8040EEAD8F550AC
:10CE900056D9E66AB6DFE552E552CED01DD9F6BEC8
:10CEA000F768A6D80800F51CB4D8F6BEF768A0D875
:10CEB000010E41D9F6BEF7689BD8020E3CD9F6BEEA
:10CEC000F76896D8030E37D9F6BEF76891D8040EE6
:10CED000C8D8F51C34D9E66894DFE552E552ACD0E9
:10CEE0009ED8AED80AE01DD9ABD8E66EB5DFBED865
:10CEF00001E3DB2A060EDF26F4D7E5529DD08FD85A
:10CF00009FD80AE00ED99CD8E66EC8DFAFD801E3FF
:10CF1000DB2A060EDF26F4D7E5528ED080D899D8CA
:10CF20000AE0FFD896D8E66E97DFA0D801E3DB2AA7
:10CF3000060EDF26F4D7E5527FD071D88AD80AE0F2
:10CF4000F0D887D8E66EAADF91D801E3DB2A060E77
:10CF5000DF26F4D7E55270D001D9050EE126030E85
:10CF6000DB6A040EDB6A020E146EFA0EB0D8FA0EFB
:10CF7000E7CFDBFFF90EDB50B00FDF6EFB0EDB50AF
:10CF8000B00FDF5C2EE2DFCFE6FFEDD8FA0EDB500C
:10CF90000F0B3CD8FA0EDB380F0B0F0B100936D8ED
:10CFA000010EDB6AFC0EDB50F36E010EDBCFF4FFEB
:10CFB000F350F45C14E2030EDB2A040E01E3DB2AD7
:10CFC000FD0EDBCFF6FFDB2AFE0EDBCFF7FF01E322
:10CFD000DB2A0800F550B3D8010EDB2AE3D7DF2A9D
:10CFE000CDD7050EE15C02E2E16AE552E16E24D0A4
:10CFF000050EF702F3CFF7FFF602F3CFF6FFF4507A
:10D00000F726C40EF626D50EF7221200E66EB3EF11
:10D0100068F095D8FE0EDBCFF6FFF76A12009ED8B7
:10D02000E652FB0EDB50DF6EFC0EDB50B10FE76EFD
:10D03000FC0EE7CFDBFF1200E552E7CFD9FF12006D
:10D04000FD0EDBCFF6FFFE0EDBCFF7FF0800F5503D
:10D050001200FD0EDBCFE9FFFE0EDBCFEAFFEF5043
:10D060001200F626000EF72208001200E552E552E3
:10D07000E552FD0EDB2AFE0E1200D9CFE9FFDACF12
:10D08000EAFF640EEE5C000EEE58000EEE58000E45
:10D09000EE58120063D8956AFE0EDB508C6E8D80C0
:10D0A0008D821200D9CFE9FFDACFEAFFEE2A000E17
:10D0B000EE22EE22EE22120051D8020EE1261200DC
:10D0C000DE6ADE6ADE6ADD6ADD52DD521200DBCF27
:10D0D000E7FF1450E726120041D8E652200E146EE6
:10D0E000FE0EDBCFE7FF1450E75EFE0EE7CFDBFF5F
:10D0F000FD0EDBCFE6FF37D8020E146EFC0EE7DF25
:10D10000FC0EE7CFDBFFDB500F0B80DFFC0EDB38C4
:10D110000F0B0F0B100F7ADFFE0EDBCFF6FFF76A57
:10D120001200DFCFE6FFFC0EDBCFE6FF120099DF37
:10D13000F55009EF68F095DFF51C09EF68F0E66E31
:10D1400060DEE5521200020E61DF100E06EF68F09D
:10D150008D948D928D828D8495686ED7D9CFE6FFA0
:0CD16000E1CFD9FF12004ADEE5521200B8
:04D16C00D9CFE6FF32
:10D17000E1CFD9FF030EE12659D8736A820E726E91
:10D18000739C94949396958C7288728A949EE66AA6
:10D19000D0D8E552E76E020EE7CFDBFF0000D95092
:10D1A000020FE96EDACFEAFFEF50070B020801E049
:10D1B0000000140EE66EBDD8E552E76E020EE7CF12
:10D1C000DBFF020EDB96DB88020EDB80DB92DB945A
:10D1D000020EDBCFE6FF140EE66E3AD8E552E552BA
:10D1E000010EE66EA6D8E552DE6EDD6A0000110E75
:10D1F000E66E9FD8E552DE6EDD6A0000E66A110E2B
:10D20000E66E26D8E552E5520000110EE66E91D882
:10D21000E552DE6EDD6A0000030EE15C02E2E16AC7
:10D22000E552E16EE552E7CFD9FF1200550EA76E29
:10D23000AA0EA76E0E01FF91090ECC6F0A0ED36FD6
:10D24000170EFB6F550EA76EAA0EA76EFF81120078
:10D25000D9CFE6FFE1CFD9FFE652DF6AFE0EDB5001
:10D26000140804E0FE0EDB50340806E1140EE66EEE
:10D2700060D8E552E00BDF6E8B9EA49EFE0EDB5065
:10D28000756EA4AEFED70000000000000000000094
:10D29000000000000000000000000000000000008E
:10D2A000000000000000000000000000000000007E
:10D2B000000000000000000000000000000000006E
:10D2C000000000000000000000000000000000005E
:10D2D000000000000000000000000000000000004E
:10D2E000000000000000000000000000000000003E
:10D2F000000000000000000000000000000000002E
:10D30000000000000000A49EFE0EDB500A0805E1AC
:10D31000FD0EDB507F0B756E04D0FD0EDB50DF1071
:10D32000756EA4AEFED78B8EE552E552E7CFD9FFDE
:10D330001200D9CFE6FFE1CFD9FF8B9EA49EFE0E4F
:10D34000DB508009756EA4AEFED70000000000001F
:10D3500000000000000000000000000000000000CD
:10D3600000000000000000000000000000000000BD
:10D3700000000000000000000000000000000000AD
:10D38000000000000000000000000000000000009D
:10D39000000000000000000000000000000000008D
:10D3A000000000000000000000000000000000007D
:10D3B000000000000000000000000000000000006D
:10D3C00000000000000000000000A49E756AA4AEEA
:10D3D000FED78B8E755000D0E552E7CFD9FF1200F3
:10D3E000030EB16EB392B390B396B288B28EB29080
:10D3F000B292A494B38E12002F0E926E0F01E00E23
:10D40000486F1F0E496FC18EC19CC70EC114080919
:10D41000C16EF80EC1140209C16E498FC29CC29E32
:10D42000C30EC2140809C26EC2801200D9DFFCEF1D
:10D4300069F0D9CFE6FFE1CFD9FF020EE126FE0E5B
:10D44000DB500F0BF36EF346F346C30EC214F3101A
:10D45000C26EFE0EDB50EA6AFC0FE96E020EEA2293
:10D46000EF503F0BF36EF346F346030EB114F31087
:10D47000B16EB38EB3820000000000000000000017
:10D48000000000000000000000000000000000009C
:10D490000000000000000000000000000000B39247
:10D4A000B28000000000000000000000000000004A
:10D4B000000000000000000000000000000000006C
:10D4C00000000000000000000000B2909E9CC2829C
:10D4D0009EACFED7C3CFDEFFC4CFDDFFDECF14F09E
:10D4E000DDCF15F014C0F3FF15C0F4FF00D0020E1D
:10D4F000E15C02E2E16AE552E16EE552E7CFD9FF75
:10D500001200D9CFE6FFE1CFD9FF030EE126020ECC
:10D51000DB6A040EF36E020EDBCFF4FFF350F45C13
:10D5200021E22AD8EF6A30D80CE226D8EF501F0843
:10D5300003E122D8EF6A13D01FD8EF2A25D8F5E3EC
:10D540000ED02CD80CE218D8EF50E10803E114D823
:10D55000EF6A05D011D8EF062BD820D8F4E3020EDD
:10D56000DB2AD7D7030EE15C02E2E16AE552E16E05
:10D57000E552E7CFD9FF1200020EDB50EA6AFC0F3A
:10D58000E96E020EEA22120013D8DECF14F0DDCFCE
:10D5900015F0200E145C030E15581200D9CFE9FFC8
:10D5A000DACFEAFF200ED880EE54030EED541200BD
:10D5B000020EDBCFE6FF3DDFE552F3CFDEFFF4CF17
:04D5C000DDFF120079
:0CD5C400000000000000004F0000000705
:10D5D000000700147F147F14242A7F2A12231308C3
:10D5E000646236495522500005030000001C2241A8
:10D5F000000041221C0014083E081408083E0808D8
:10D600000050300000080808080800606000002092
:10D61000100804023E5149453E00427F40004261ED
:10D620005149462141454B311814127F1027454579
:10D6300045393C4A49493001710905033649494990
:10D6400036064949291E00363600000056360000CD
:10D650000814224100141414141400412214080266
:10D6600001510906324979413E7E1111117E7F49EF
:10D670004949363E414141227F4141221C7F49496F
:10D6800049417F090909013E4149497A7F08080853
:10D690007F00417F41002040413F017F081422412B
:10D6A0007F404040407F020C027F7F0408107F3E95
:10D6B0004141413E7F090909063E4151215E7F09F2
:10D6C000192946464949493101017F01013F40403E
:10D6D000403F1F2040201F3F4038403F6314081444
:10D6E0006307087008076151494543007F414100C5
:10D6F00002040810200041417F000402010204409E
:10D7000040404040000102040020545454787F48B7
:10D710004444383844444420384444487F385454BE
:10D720005418087E0901020C5252523E7F0804042C
:10D730007800447D40002040443D007F1028440094
:10D7400000417F40007C041804787C080404783889
:10D75000444444387C14141408081414187C7C08BD
:10D760000404084854545420043F4440203C4040A2
:10D77000207C1C2040201C3C4030403C4428102889
:10D78000440C5050503C4464544C44000836410012
:0FD7900000007F00000041360800020102040281
:01D79F002069
:10D7A0002020424553542053434F5245203A2025D0
:10D7B000640020202020202053434F5245203A204F
:10D7C0002564002020202020205155495420474125
:10D7D0004D452020202020200020202020202043F4
:10D7E000414C494252415445202020202020002015
:10D7F0002020202053454C454354204C4556454C51
:10D8000020202020002020202020204E45572020AE
:10D8100047414D452020202020200020202020208E
:10D82000534E414B4520204D454E55202020005061
:10D8300072657373204D656E7520746F2070726F02
:10D84000636565640020332E204861766520612081
:10D85000676F6F642074696D652E0020746F206D92
:10D860006F7665207468652062616C6C2E202020C4
:10D870000020322E2054696C742074686520626F19
:10D88000617264202020002073656C656374206DD4
:10D89000656E75206974656D732E20200020312E11
:10D8A00020557365207363726F6C6C20746F202039
:10D8B0002020002020202020202020534E414B45B6
:10D8C0002020202020202020002020202020202078
:10D8D0004C6576656C2025642020202020200020C7
:10D8E00020202053454C45435420204C4556454C60
:10D8F0002020202000202020593A202025642020AC
:10D9000020202020202020202020200020202058FF
:10D910003A202025642020202020202020202020A4
:10D9200020200020202043414C49425241544520B0
:10D9300053454E534F5220200020202020202020ED
:0FD9400020202020202020202020202020200018
:01D94F0000D7
:10D950000101FFB122D0FF838B809490550EA76EFA
:10D96000AA0EA76E0E01FF910E0ED16F550EA76E77
:10D97000AA0EA76EFF810F0EBA6ECF0EBA14000961
:10D98000BA6EBB6A0F01526B800ECB6E040ECA6E6C
:10D99000A496600E776E7F0E766E12000101FF91E5
:10D9A000FF938B80949012000101FFA109D08B504E
:10D9B000010B04E19450010B01E1010CFF91C8DF60
:10D9C0000101FFA3C5DFA4A63AD0A496BA50300B3C
:10D9D000E842E842E842E842030819E1400EBB5C35
:10D9E00010E18B909490BA6ACA6A0E01D16B0F0154
:10D9F000526BCB68766A7768A4960101FF81FF932A
:10DA0000010CBB2ACF0EBA140009BA6E000CBA0E74
:10DA1000E96E0F0EEA6EEF50300BE842E842E84242
:10DA2000E842E82AE850030BF36EF46EF346F3463F
:10DA3000F346F346CF0EEF14F310EF6EF450000CE4
:10DA4000D9CFE6FFDACFE6FFE1CFD9FFE2CFDAFFA9
:10DA5000E652E652E652E652D950F90F146EFF0E26
:10DA6000DA20156E020E14C0DBFF030E15C0DBFFBB
:10DA7000020EDBCFE6FF030EDBCFE6FFF90EDBCFB6
:10DA8000E6FFFA0EDBCFE6FFFB0EDBCFE6FFD95059
:10DA9000FC0FE66EFF0EDA20E66E4AEC50F0146ED4
:10DAA000070EE15C02E2E16AE552E16E1450F3CF49
:10DAB000DEFFF4CFDDFFFC0EDBCFE9FFFD0EDBCF99
:10DAC000EAFFEF6ADECF14F0DDCF15F014C0F3FFEC
:10DAD00015C0F4FF040EE15C02E2E16AE552E16E7A
:0CDAE000E552E5CFDAFFE7CFD9FF1200D6
:04DAEC00D9CFE6FFA9
:10DAF000E1CFD9FFFE0E49D807C066F008C067F035
:10DB000009C068F00AC069F0FD0E3FD807C06AF08E
:10DB100008C06BF009C06CF00AC06DF0E552E7CFA9
:10DB2000D9FF12001C0EE66EE66EE0DFE552E5520C
:10DB3000120012001200120012001200D9CFE6FFEC
:10DB4000E1CFD9FFFE0EDB50060A18E0030A14E00D
:10DB5000010A10E0070A0CE0010A08E0030A04E0E9
:10DB6000010A0FE1DFDF0DD0E4DF0BD0E3DF09D0E6
:10DB7000E2DF07D0E1DF05D0E0DF03D00001010ED6
:10DB8000A86FE552E7CFD9FF1200DBCF14F014C025
:06DB900009F04FEF63F005
:0ADB96001E0EF66EA00EF76E000ED4
:10DBA000F86E00010900F5509F6F0900F550A06F55
:10DBB00003E19F6701D03DD00900F5509A6F09003D
:10DBC000F5509B6F0900F5509C6F09000900F55056
:10DBD000E96E0900F550EA6E090009000900F550E8
:10DBE0009D6F0900F5509E6F09000900F6CFA1F066
:10DBF000F7CFA2F0F8CFA3F09AC0F6FF9BC0F7FFD3
:10DC00009CC0F8FF00019D5302E19E5307E009000C
:10DC1000F550EE6E9D07F8E29E07F9D7A1C0F6FF1A
:10DC2000A2C0F7FFA3C0F8FF00019F07000EA05B92
:04DC3000BFD7120048
:0CDC3400D9CFE6FFDACFE6FFE1CFD9FF41
:10DC4000E2CFDAFFFB0EDBCF14F0FC0EDBCF15F0DA
:10DC50000001800E15141AE1FB0EDBCFE9FFFC0E6C
:10DC6000DBCFEAFFEECFF3FFEDCFF4FFEE2A000E9D
:10DC7000EF22F3CFE9FFF4CFEAFFFD0EDBCFEFFF9A
:10DC8000EF50156AF36E15C0F4FF10D0FB0EDB5099
:10DC9000FE0806E1FD0EDBCFE6FF3FEC6FF005D09E
:10DCA000FD0EDBCFE6FF03EC50F0E552E552E5CF89
:08DCB000DAFFE7CFD9FF1200F3
:08DCB80006500B02F3CF02F04D
:10DCC000F4CF03F00C02F3500326000EF420046E90
:10DCD00006500D02F3500426000EF420056E065087
:10DCE0000E02F350052607500B02F3500326F450A2
:10DCF0000422000E052207500C02F3500426F450B3
:10DD0000052207500D02F350052608500B02F35070
:10DD10000426F450052208500C02F3500526095041
:08DD20000B02F350052612006E
:08DD2800FE0EE3CFE9FFFF0E40
:10DD3000E3CFEAFFF36AF46AEE5203E0F34AF42A0F
:10DD4000FBD71200FF0EE3CFF8FFE552FF0EE3CF43
:10DD5000F7FFE552FF0EE3CFF6FFE552E66AE66A0B
:10DD6000E66A0900F55209E0FD0EE32A05E1FE0E20
:10DD7000E32A02E1FF0EE32AF4D7FD0EE3CF07F01A
:0EDD8000FE0EE3CF08F0FF0EE3CF09F0120015
:02DD8E00056A24
:10DD9000046A036A026A200EE76ED89006360736D8
:10DDA0000836093602360336043605360B50025C57
:10DDB0000C5003580D5004580E50055809E30B50F1
:10DDC000025E0C50035A0D50045A0E50055A062A92
:06DDD000E72EE4D712006B
:0ADDD600FE0EE3CFA4F0FF0EE3CF32
:10DDE000A5F01200A5C009F0A4C008F0350E0D6E14
:10DDF000450E0E6E69EC66F0062AE86A0722079E59
:10DE000007C0A5F006C0A4F0A4C0F3FFA5C0F4FFAE
:02DE10001200FE
:0EDE1200056A046A100EE76ED89008360936CD
:10DE2000043605360D50045C0E50055805E30D50C0
:0EDE3000045E0E50055A082AE72EF0D71200A5
:02DE3E00F36A85
:10DE4000F46AFF0EE124E96EFF0EE220EA6EED6651
:10DE500007D02F0EEF6404D03A0EEF6001D0F32A02
:02DE60001200AE
:0EDE62001DEE00F02DEE00F0F86A019CCBECF6
:0EDE70006DF007EC50F055EC56F0FBD71200A9
:02DE7E00FF0E95
:10DE8000E350ADBA04D0B06AAC8EAD8A949CADA21A
:0ADE9000FED7AE6EF36EF46A1200C6
:06DE9A0030313233343553
:0BDEA000363738396162636465660044
:01DEAB000076
:04DEAC0000EE00F094
:0ADEB0000E0EEE6AEA62FDD71200C2
:06DEBA0000000000000062
:10DEC00000001042000010420000010001000000AC
:10DED0000A00F6FFF6FFF6FFF6FFF6FFF6FFF6FF85
:10DEE000F6FFF6FFF6FFF6FFF6FFF6FFF6FFF6FF8A
:10DEF000F6FFF6FFF6FFF6FFF6FFF6FFF6FFF6FF7A
:10DF0000F6FFF6FFF6FFF6FFF6FFF6FFF6FFF6FF69
:10DF1000F6FFF6FFF6FFF6FFF6FFF6FFF6FFF6FF59
:10DF2000F6FFF6FFF6FFF6FFF6FFF6FFF6FFF6FF49
:10DF3000F6FFF6FFF6FFF6FFF6FFF6FFF6FFF6FF39
:10DF4000F6FFF6FFF6FFF6FFF6FFF6FFF6FFF6FF29
:10DF5000F6FFF6FFF6FFF6FFF6FFF6FFF6FFF6FF19
:10DF6000F6FFF6FFF6FFF6FFF6FFF6FFF6FFF6FF09
:10DF7000F6FFF6FFF6FFF6FFF6FFF6FFF6FFF6FFF9
:10DF8000F6FFF6FFF6FFF6FFF6FFF6FFF6FFF6FFE9
:10DF9000F6FFF6FFF6FFF6FFF6FF020000000000B6
:10DFA0000000000000000000000000000039D9005F
:06DFB0000000000000006B
:01FFF800AA5E
:01FFF900F710
:01FFFA001DE9
:01FFFB00FF06
:01FFFC0063A1
:01FFFD00F80B
:01FFFE008181
:01FFFF00F110
:00000001FF
